{
  "contractName": "ERC721Metadata",
  "abi": [
    {
      "inputs": [
        {
          "internalType": "string",
          "name": "name",
          "type": "string"
        },
        {
          "internalType": "string",
          "name": "symbol",
          "type": "string"
        },
        {
          "internalType": "string",
          "name": "baseTokenURI",
          "type": "string"
        }
      ],
      "payable": false,
      "stateMutability": "nonpayable",
      "type": "constructor"
    },
    {
      "anonymous": false,
      "inputs": [
        {
          "indexed": true,
          "internalType": "address",
          "name": "owner",
          "type": "address"
        },
        {
          "indexed": true,
          "internalType": "address",
          "name": "approved",
          "type": "address"
        },
        {
          "indexed": true,
          "internalType": "uint256",
          "name": "tokenId",
          "type": "uint256"
        }
      ],
      "name": "Approval",
      "type": "event"
    },
    {
      "anonymous": false,
      "inputs": [
        {
          "indexed": true,
          "internalType": "address",
          "name": "owner",
          "type": "address"
        },
        {
          "indexed": true,
          "internalType": "address",
          "name": "operator",
          "type": "address"
        },
        {
          "indexed": false,
          "internalType": "bool",
          "name": "approved",
          "type": "bool"
        }
      ],
      "name": "ApprovalForAll",
      "type": "event"
    },
    {
      "anonymous": false,
      "inputs": [
        {
          "indexed": false,
          "internalType": "address",
          "name": "account",
          "type": "address"
        }
      ],
      "name": "Paused",
      "type": "event"
    },
    {
      "anonymous": false,
      "inputs": [
        {
          "indexed": true,
          "internalType": "address",
          "name": "from",
          "type": "address"
        },
        {
          "indexed": true,
          "internalType": "address",
          "name": "to",
          "type": "address"
        },
        {
          "indexed": true,
          "internalType": "uint256",
          "name": "tokenId",
          "type": "uint256"
        }
      ],
      "name": "Transfer",
      "type": "event"
    },
    {
      "anonymous": false,
      "inputs": [
        {
          "indexed": true,
          "internalType": "address",
          "name": "oldOwner",
          "type": "address"
        },
        {
          "indexed": true,
          "internalType": "address",
          "name": "newOwner",
          "type": "address"
        }
      ],
      "name": "TransferOwnerShip",
      "type": "event"
    },
    {
      "anonymous": false,
      "inputs": [
        {
          "indexed": false,
          "internalType": "address",
          "name": "account",
          "type": "address"
        }
      ],
      "name": "Unpaused",
      "type": "event"
    },
    {
      "constant": false,
      "inputs": [
        {
          "internalType": "bytes32",
          "name": "_myid",
          "type": "bytes32"
        },
        {
          "internalType": "string",
          "name": "_result",
          "type": "string"
        }
      ],
      "name": "__callback",
      "outputs": [],
      "payable": false,
      "stateMutability": "nonpayable",
      "type": "function"
    },
    {
      "constant": false,
      "inputs": [
        {
          "internalType": "bytes32",
          "name": "_myid",
          "type": "bytes32"
        },
        {
          "internalType": "string",
          "name": "_result",
          "type": "string"
        },
        {
          "internalType": "bytes",
          "name": "_proof",
          "type": "bytes"
        }
      ],
      "name": "__callback",
      "outputs": [],
      "payable": false,
      "stateMutability": "nonpayable",
      "type": "function"
    },
    {
      "constant": false,
      "inputs": [
        {
          "internalType": "address",
          "name": "to",
          "type": "address"
        },
        {
          "internalType": "uint256",
          "name": "tokenId",
          "type": "uint256"
        }
      ],
      "name": "approve",
      "outputs": [],
      "payable": false,
      "stateMutability": "nonpayable",
      "type": "function"
    },
    {
      "constant": true,
      "inputs": [
        {
          "internalType": "address",
          "name": "owner",
          "type": "address"
        }
      ],
      "name": "balanceOf",
      "outputs": [
        {
          "internalType": "uint256",
          "name": "",
          "type": "uint256"
        }
      ],
      "payable": false,
      "stateMutability": "view",
      "type": "function"
    },
    {
      "constant": true,
      "inputs": [
        {
          "internalType": "uint256",
          "name": "tokenId",
          "type": "uint256"
        }
      ],
      "name": "getApproved",
      "outputs": [
        {
          "internalType": "address",
          "name": "",
          "type": "address"
        }
      ],
      "payable": false,
      "stateMutability": "view",
      "type": "function"
    },
    {
      "constant": true,
      "inputs": [
        {
          "internalType": "address",
          "name": "owner",
          "type": "address"
        },
        {
          "internalType": "address",
          "name": "operator",
          "type": "address"
        }
      ],
      "name": "isApprovedForAll",
      "outputs": [
        {
          "internalType": "bool",
          "name": "",
          "type": "bool"
        }
      ],
      "payable": false,
      "stateMutability": "view",
      "type": "function"
    },
    {
      "constant": true,
      "inputs": [],
      "name": "isOwner",
      "outputs": [
        {
          "internalType": "bool",
          "name": "",
          "type": "bool"
        }
      ],
      "payable": false,
      "stateMutability": "view",
      "type": "function"
    },
    {
      "constant": true,
      "inputs": [],
      "name": "owner",
      "outputs": [
        {
          "internalType": "address",
          "name": "",
          "type": "address"
        }
      ],
      "payable": false,
      "stateMutability": "view",
      "type": "function"
    },
    {
      "constant": true,
      "inputs": [
        {
          "internalType": "uint256",
          "name": "tokenId",
          "type": "uint256"
        }
      ],
      "name": "ownerOf",
      "outputs": [
        {
          "internalType": "address",
          "name": "",
          "type": "address"
        }
      ],
      "payable": false,
      "stateMutability": "view",
      "type": "function"
    },
    {
      "constant": false,
      "inputs": [],
      "name": "pause",
      "outputs": [],
      "payable": false,
      "stateMutability": "nonpayable",
      "type": "function"
    },
    {
      "constant": false,
      "inputs": [
        {
          "internalType": "address",
          "name": "from",
          "type": "address"
        },
        {
          "internalType": "address",
          "name": "to",
          "type": "address"
        },
        {
          "internalType": "uint256",
          "name": "tokenId",
          "type": "uint256"
        }
      ],
      "name": "safeTransferFrom",
      "outputs": [],
      "payable": false,
      "stateMutability": "nonpayable",
      "type": "function"
    },
    {
      "constant": false,
      "inputs": [
        {
          "internalType": "address",
          "name": "from",
          "type": "address"
        },
        {
          "internalType": "address",
          "name": "to",
          "type": "address"
        },
        {
          "internalType": "uint256",
          "name": "tokenId",
          "type": "uint256"
        },
        {
          "internalType": "bytes",
          "name": "_data",
          "type": "bytes"
        }
      ],
      "name": "safeTransferFrom",
      "outputs": [],
      "payable": false,
      "stateMutability": "nonpayable",
      "type": "function"
    },
    {
      "constant": false,
      "inputs": [
        {
          "internalType": "address",
          "name": "to",
          "type": "address"
        },
        {
          "internalType": "bool",
          "name": "approved",
          "type": "bool"
        }
      ],
      "name": "setApprovalForAll",
      "outputs": [],
      "payable": false,
      "stateMutability": "nonpayable",
      "type": "function"
    },
    {
      "constant": true,
      "inputs": [
        {
          "internalType": "bytes4",
          "name": "interfaceId",
          "type": "bytes4"
        }
      ],
      "name": "supportsInterface",
      "outputs": [
        {
          "internalType": "bool",
          "name": "",
          "type": "bool"
        }
      ],
      "payable": false,
      "stateMutability": "view",
      "type": "function"
    },
    {
      "constant": true,
      "inputs": [
        {
          "internalType": "uint256",
          "name": "index",
          "type": "uint256"
        }
      ],
      "name": "tokenByIndex",
      "outputs": [
        {
          "internalType": "uint256",
          "name": "",
          "type": "uint256"
        }
      ],
      "payable": false,
      "stateMutability": "view",
      "type": "function"
    },
    {
      "constant": true,
      "inputs": [
        {
          "internalType": "address",
          "name": "owner",
          "type": "address"
        },
        {
          "internalType": "uint256",
          "name": "index",
          "type": "uint256"
        }
      ],
      "name": "tokenOfOwnerByIndex",
      "outputs": [
        {
          "internalType": "uint256",
          "name": "",
          "type": "uint256"
        }
      ],
      "payable": false,
      "stateMutability": "view",
      "type": "function"
    },
    {
      "constant": true,
      "inputs": [],
      "name": "totalSupply",
      "outputs": [
        {
          "internalType": "uint256",
          "name": "",
          "type": "uint256"
        }
      ],
      "payable": false,
      "stateMutability": "view",
      "type": "function"
    },
    {
      "constant": false,
      "inputs": [
        {
          "internalType": "address",
          "name": "from",
          "type": "address"
        },
        {
          "internalType": "address",
          "name": "to",
          "type": "address"
        },
        {
          "internalType": "uint256",
          "name": "tokenId",
          "type": "uint256"
        }
      ],
      "name": "transferFrom",
      "outputs": [],
      "payable": false,
      "stateMutability": "nonpayable",
      "type": "function"
    },
    {
      "constant": false,
      "inputs": [
        {
          "internalType": "address",
          "name": "newOwner",
          "type": "address"
        }
      ],
      "name": "transferOwnership",
      "outputs": [],
      "payable": false,
      "stateMutability": "nonpayable",
      "type": "function"
    },
    {
      "constant": false,
      "inputs": [],
      "name": "unpause",
      "outputs": [],
      "payable": false,
      "stateMutability": "nonpayable",
      "type": "function"
    },
    {
      "constant": true,
      "inputs": [],
      "name": "name",
      "outputs": [
        {
          "internalType": "string",
          "name": "",
          "type": "string"
        }
      ],
      "payable": false,
      "stateMutability": "view",
      "type": "function"
    },
    {
      "constant": true,
      "inputs": [],
      "name": "symbol",
      "outputs": [
        {
          "internalType": "string",
          "name": "",
          "type": "string"
        }
      ],
      "payable": false,
      "stateMutability": "view",
      "type": "function"
    },
    {
      "constant": true,
      "inputs": [],
      "name": "baseTokenURI",
      "outputs": [
        {
          "internalType": "string",
          "name": "",
          "type": "string"
        }
      ],
      "payable": false,
      "stateMutability": "view",
      "type": "function"
    },
    {
      "constant": true,
      "inputs": [
        {
          "internalType": "uint256",
          "name": "tokenId",
          "type": "uint256"
        }
      ],
      "name": "tokenURI",
      "outputs": [
        {
          "internalType": "string",
          "name": "",
          "type": "string"
        }
      ],
      "payable": false,
      "stateMutability": "view",
      "type": "function"
    }
  ],
  "bytecode": "0x60806040523480156200001157600080fd5b5060405162002f5738038062002f57833981810160405260608110156200003757600080fd5b81019080805160405193929190846401000000008211156200005857600080fd5b838201915060208201858111156200006f57600080fd5b82518660018202830111640100000000821117156200008d57600080fd5b8083526020830192505050908051906020019080838360005b83811015620000c3578082015181840152602081019050620000a6565b50505050905090810190601f168015620000f15780820380516001836020036101000a031916815260200191505b50604052602001805160405193929190846401000000008211156200011557600080fd5b838201915060208201858111156200012c57600080fd5b82518660018202830111640100000000821117156200014a57600080fd5b8083526020830192505050908051906020019080838360005b838110156200018057808201518184015260208101905062000163565b50505050905090810190601f168015620001ae5780820380516001836020036101000a031916815260200191505b5060405260200180516040519392919084640100000000821115620001d257600080fd5b83820191506020820185811115620001e957600080fd5b82518660018202830111640100000000821117156200020757600080fd5b8083526020830192505050908051906020019080838360005b838110156200023d57808201518184015260208101905062000220565b50505050905090810190601f1680156200026b5780820380516001836020036101000a031916815260200191505b50604052505050336000806101000a81548173ffffffffffffffffffffffffffffffffffffffff021916908373ffffffffffffffffffffffffffffffffffffffff1602179055506000809054906101000a900473ffffffffffffffffffffffffffffffffffffffff1673ffffffffffffffffffffffffffffffffffffffff16600073ffffffffffffffffffffffffffffffffffffffff167fc5bf6dda410d3f9123b5de1a2f5d486bd65c29adfc2e21c0ac98fd6f826fd4a260405160405180910390a360008060146101000a81548160ff021916908315150217905550620003606301ffc9a760e01b620003fc60201b60201c565b620003786380ac58cd60e01b620003fc60201b60201c565b6200039063780e9d6360e01b620003fc60201b60201c565b82600f9080519060200190620003a892919062000505565b508160109080519060200190620003c192919062000505565b508060119080519060200190620003da92919062000505565b50620003f3635b5e139f60e01b620003fc60201b60201c565b505050620005b4565b63ffffffff60e01b817bffffffffffffffffffffffffffffffffffffffffffffffffffffffff1916141562000499576040517f08c379a00000000000000000000000000000000000000000000000000000000081526004018080602001828103825260128152602001807f57726f6e6720696e74657266616365206964000000000000000000000000000081525060200191505060405180910390fd5b6001806000837bffffffffffffffffffffffffffffffffffffffffffffffffffffffff19167bffffffffffffffffffffffffffffffffffffffffffffffffffffffff1916815260200190815260200160002060006101000a81548160ff02191690831515021790555050565b828054600181600116156101000203166002900490600052602060002090601f016020900481019282601f106200054857805160ff191683800117855562000579565b8280016001018555821562000579579182015b82811115620005785782518255916020019190600101906200055b565b5b5090506200058891906200058c565b5090565b620005b191905b80821115620005ad57600081600090555060010162000593565b5090565b90565b61299380620005c46000396000f3fe608060405234801561001057600080fd5b50600436106101585760003560e01c80636352211e116100c3578063a22cb4651161007c578063a22cb46514610889578063b88d4fde146108d9578063c87b56dd146109de578063d547cfb714610a85578063e985e9c514610b08578063f2fde38b14610b8457610158565b80636352211e146106ca57806370a08231146107385780638456cb59146107905780638da5cb5b1461079a5780638f32d59b146107e457806395d89b411461080657610158565b806327dc297e1161011557806327dc297e1461038d5780632f745c591461045257806338bbfa50146104b45780633f4ba83a1461061057806342842e0e1461061a5780634f6ccce71461068857610158565b806301ffc9a71461015d57806306fdde03146101c2578063081812fc14610245578063095ea7b3146102b357806318160ddd1461030157806323b872dd1461031f575b600080fd5b6101a86004803603602081101561017357600080fd5b8101908080357bffffffffffffffffffffffffffffffffffffffffffffffffffffffff19169060200190929190505050610bc8565b604051808215151515815260200191505060405180910390f35b6101ca610c30565b6040518080602001828103825283818151815260200191508051906020019080838360005b8381101561020a5780820151818401526020810190506101ef565b50505050905090810190601f1680156102375780820380516001836020036101000a031916815260200191505b509250505060405180910390f35b6102716004803603602081101561025b57600080fd5b8101908080359060200190929190505050610cd2565b604051808273ffffffffffffffffffffffffffffffffffffffff1673ffffffffffffffffffffffffffffffffffffffff16815260200191505060405180910390f35b6102ff600480360360408110156102c957600080fd5b81019080803573ffffffffffffffffffffffffffffffffffffffff16906020019092919080359060200190929190505050610d8a565b005b610309610fab565b6040518082815260200191505060405180910390f35b61038b6004803603606081101561033557600080fd5b81019080803573ffffffffffffffffffffffffffffffffffffffff169060200190929190803573ffffffffffffffffffffffffffffffffffffffff16906020019092919080359060200190929190505050610fb8565b005b610450600480360360408110156103a357600080fd5b8101908080359060200190929190803590602001906401000000008111156103ca57600080fd5b8201836020820111156103dc57600080fd5b803590602001918460018302840111640100000000831117156103fe57600080fd5b91908080601f016020809104026020016040519081016040528093929190818152602001838380828437600081840152601f19601f820116905080830192505050505050509192919290505050611044565b005b61049e6004803603604081101561046857600080fd5b81019080803573ffffffffffffffffffffffffffffffffffffffff16906020019092919080359060200190929190505050611087565b6040518082815260200191505060405180910390f35b61060e600480360360608110156104ca57600080fd5b8101908080359060200190929190803590602001906401000000008111156104f157600080fd5b82018360208201111561050357600080fd5b8035906020019184600183028401116401000000008311171561052557600080fd5b91908080601f016020809104026020016040519081016040528093929190818152602001838380828437600081840152601f19601f8201169050808301925050505050505091929192908035906020019064010000000081111561058857600080fd5b82018360208201111561059a57600080fd5b803590602001918460018302840111640100000000831117156105bc57600080fd5b91908080601f016020809104026020016040519081016040528093929190818152602001838380828437600081840152601f19601f820116905080830192505050505050509192919290505050611163565b005b610618611168565b005b6106866004803603606081101561063057600080fd5b81019080803573ffffffffffffffffffffffffffffffffffffffff169060200190929190803573ffffffffffffffffffffffffffffffffffffffff169060200190929190803590602001909291905050506112ea565b005b6106b46004803603602081101561069e57600080fd5b810190808035906020019092919050505061130a565b6040518082815260200191505060405180910390f35b6106f6600480360360208110156106e057600080fd5b81019080803590602001909291905050506113a7565b604051808273ffffffffffffffffffffffffffffffffffffffff1673ffffffffffffffffffffffffffffffffffffffff16815260200191505060405180910390f35b61077a6004803603602081101561074e57600080fd5b81019080803573ffffffffffffffffffffffffffffffffffffffff169060200190929190505050611493565b6040518082815260200191505060405180910390f35b610798611585565b005b6107a2611709565b604051808273ffffffffffffffffffffffffffffffffffffffff1673ffffffffffffffffffffffffffffffffffffffff16815260200191505060405180910390f35b6107ec611732565b604051808215151515815260200191505060405180910390f35b61080e611789565b6040518080602001828103825283818151815260200191508051906020019080838360005b8381101561084e578082015181840152602081019050610833565b50505050905090810190601f16801561087b5780820380516001836020036101000a031916815260200191505b509250505060405180910390f35b6108d76004803603604081101561089f57600080fd5b81019080803573ffffffffffffffffffffffffffffffffffffffff16906020019092919080351515906020019092919050505061182b565b005b6109dc600480360360808110156108ef57600080fd5b81019080803573ffffffffffffffffffffffffffffffffffffffff169060200190929190803573ffffffffffffffffffffffffffffffffffffffff169060200190929190803590602001909291908035906020019064010000000081111561095657600080fd5b82018360208201111561096857600080fd5b8035906020019184600183028401116401000000008311171561098a57600080fd5b91908080601f016020809104026020016040519081016040528093929190818152602001838380828437600081840152601f19601f8201169050808301925050505050505091929192905050506119ce565b005b610a0a600480360360208110156109f457600080fd5b8101908080359060200190929190505050611a5d565b6040518080602001828103825283818151815260200191508051906020019080838360005b83811015610a4a578082015181840152602081019050610a2f565b50505050905090810190601f168015610a775780820380516001836020036101000a031916815260200191505b509250505060405180910390f35b610a8d611b8d565b6040518080602001828103825283818151815260200191508051906020019080838360005b83811015610acd578082015181840152602081019050610ab2565b50505050905090810190601f168015610afa5780820380516001836020036101000a031916815260200191505b509250505060405180910390f35b610b6a60048036036040811015610b1e57600080fd5b81019080803573ffffffffffffffffffffffffffffffffffffffff169060200190929190803573ffffffffffffffffffffffffffffffffffffffff169060200190929190505050611c2f565b604051808215151515815260200191505060405180910390f35b610bc660048036036020811015610b9a57600080fd5b81019080803573ffffffffffffffffffffffffffffffffffffffff169060200190929190505050611cc3565b005b600060016000837bffffffffffffffffffffffffffffffffffffffffffffffffffffffff19167bffffffffffffffffffffffffffffffffffffffffffffffffffffffff1916815260200190815260200160002060009054906101000a900460ff169050919050565b6060600f8054600181600116156101000203166002900480601f016020809104026020016040519081016040528092919081815260200182805460018160011615610100020316600290048015610cc85780601f10610c9d57610100808354040283529160200191610cc8565b820191906000526020600020905b815481529060010190602001808311610cab57829003601f168201915b5050505050905090565b6000610cdd82611ea5565b610d4f576040517f08c379a00000000000000000000000000000000000000000000000000000000081526004018080602001828103825260148152602001807f546f6b656e20646f65736e27742065786973747300000000000000000000000081525060200191505060405180910390fd5b6003600083815260200190815260200160002060009054906101000a900473ffffffffffffffffffffffffffffffffffffffff169050919050565b610d92611709565b73ffffffffffffffffffffffffffffffffffffffff168273ffffffffffffffffffffffffffffffffffffffff161415610e33576040517f08c379a00000000000000000000000000000000000000000000000000000000081526004018080602001828103825260108152602001807f436f6e646974696f6e206661696c65640000000000000000000000000000000081525060200191505060405180910390fd5b610e3b611709565b73ffffffffffffffffffffffffffffffffffffffff163373ffffffffffffffffffffffffffffffffffffffff161480610e815750610e80610e7a611709565b33611c2f565b5b610ef3576040517f08c379a00000000000000000000000000000000000000000000000000000000081526004018080602001828103825260188152602001807f436f6e64696474696f6e206e6f7420736174697366696564000000000000000081525060200191505060405180910390fd5b816003600083815260200190815260200160002060006101000a81548173ffffffffffffffffffffffffffffffffffffffff021916908373ffffffffffffffffffffffffffffffffffffffff160217905550808273ffffffffffffffffffffffffffffffffffffffff16610f65611709565b73ffffffffffffffffffffffffffffffffffffffff167f8c5be1e5ebec7d5bd14f71427d1e84f3dd0314c0f7b2291e5b200ac8c7c3b92560405160405180910390a45050565b6000600880549050905090565b610fc23382611f17565b611034576040517f08c379a00000000000000000000000000000000000000000000000000000000081526004018080602001828103825260158152602001807f4f776e6572206973206e6f7420617070726f766564000000000000000000000081525060200191505060405180910390fd5b61103f838383611fac565b505050565b611083828260006040519080825280601f01601f19166020018201604052801561107d5781602001600182028038833980820191505090505b50611163565b5050565b600061109283611493565b8210611106576040517f08c379a00000000000000000000000000000000000000000000000000000000081526004018080602001828103825260028152602001807f4e4100000000000000000000000000000000000000000000000000000000000081525060200191505060405180910390fd5b600660008473ffffffffffffffffffffffffffffffffffffffff1673ffffffffffffffffffffffffffffffffffffffff168152602001908152602001600020828154811061115057fe5b9060005260206000200154905092915050565b505050565b60011515611174611732565b1515146111e9576040517f08c379a00000000000000000000000000000000000000000000000000000000081526004018080602001828103825260188152602001807f4f6e6c79206f776e65722063616e20616363657373206974000000000000000081525060200191505060405180910390fd5b600060149054906101000a900460ff1661126b576040517f08c379a00000000000000000000000000000000000000000000000000000000081526004018080602001828103825260178152602001807f697420697320616c726561647920756e2d70617573656400000000000000000081525060200191505060405180910390fd5b60008060146101000a81548160ff0219169083151502179055507f5db9ee0a495bf2e6ff9c91a7834c1ba4fdd244a5e8aa4e537bd38aeae4b073aa33604051808273ffffffffffffffffffffffffffffffffffffffff1673ffffffffffffffffffffffffffffffffffffffff16815260200191505060405180910390a1565b611305838383604051806020016040528060008152506119ce565b505050565b6000611314610fab565b8210611388576040517f08c379a00000000000000000000000000000000000000000000000000000000081526004018080602001828103825260028152602001807f4e4100000000000000000000000000000000000000000000000000000000000081525060200191505060405180910390fd5b6008828154811061139557fe5b90600052602060002001549050919050565b60008073ffffffffffffffffffffffffffffffffffffffff166113c8611709565b73ffffffffffffffffffffffffffffffffffffffff161415611452576040517f08c379a000000000000000000000000000000000000000000000000000000000815260040180806020018281038252601c8152602001807f596f752063616e27742063616c6c20746869732066756e6374696f6e0000000081525060200191505060405180910390fd5b60006002600084815260200190815260200160002060009054906101000a900473ffffffffffffffffffffffffffffffffffffffff16905080915050919050565b60008073ffffffffffffffffffffffffffffffffffffffff168273ffffffffffffffffffffffffffffffffffffffff161415611537576040517f08c379a000000000000000000000000000000000000000000000000000000000815260040180806020018281038252601c8152602001807f596f752063616e27742063616c6c20746869732066756e6374696f6e0000000081525060200191505060405180910390fd5b61157e600460008473ffffffffffffffffffffffffffffffffffffffff1673ffffffffffffffffffffffffffffffffffffffff168152602001908152602001600020611fd0565b9050919050565b60011515611591611732565b151514611606576040517f08c379a00000000000000000000000000000000000000000000000000000000081526004018080602001828103825260188152602001807f4f6e6c79206f776e65722063616e20616363657373206974000000000000000081525060200191505060405180910390fd5b600060149054906101000a900460ff1615611689576040517f08c379a00000000000000000000000000000000000000000000000000000000081526004018080602001828103825260148152602001807f697420697320616c72656164792070617573656400000000000000000000000081525060200191505060405180910390fd5b6001600060146101000a81548160ff0219169083151502179055507f62e78cea01bee320cd4e420270b5ea74000d11b0c9f74754ebdbfc544b05a25833604051808273ffffffffffffffffffffffffffffffffffffffff1673ffffffffffffffffffffffffffffffffffffffff16815260200191505060405180910390a1565b60008060009054906101000a900473ffffffffffffffffffffffffffffffffffffffff16905090565b60008060009054906101000a900473ffffffffffffffffffffffffffffffffffffffff1673ffffffffffffffffffffffffffffffffffffffff163373ffffffffffffffffffffffffffffffffffffffff1614905090565b606060108054600181600116156101000203166002900480601f0160208091040260200160405190810160405280929190818152602001828054600181600116156101000203166002900480156118215780601f106117f657610100808354040283529160200191611821565b820191906000526020600020905b81548152906001019060200180831161180457829003601f168201915b5050505050905090565b3373ffffffffffffffffffffffffffffffffffffffff168273ffffffffffffffffffffffffffffffffffffffff1614156118cd576040517f08c379a00000000000000000000000000000000000000000000000000000000081526004018080602001828103825260158152602001807f436f6e646974696f6e20756e736174697366696564000000000000000000000081525060200191505060405180910390fd5b80600560003373ffffffffffffffffffffffffffffffffffffffff1673ffffffffffffffffffffffffffffffffffffffff16815260200190815260200160002060008473ffffffffffffffffffffffffffffffffffffffff1673ffffffffffffffffffffffffffffffffffffffff16815260200190815260200160002060006101000a81548160ff0219169083151502179055508173ffffffffffffffffffffffffffffffffffffffff163373ffffffffffffffffffffffffffffffffffffffff167f17307eab39ab6107e8899845ad3d59bd9653f200f220920489ca2b5937696c3183604051808215151515815260200191505060405180910390a35050565b6119d9848484610fb8565b6119e584848484611fde565b611a57576040517f08c379a00000000000000000000000000000000000000000000000000000000081526004018080602001828103825260158152602001807f5472616e73666572206e6f74207265636965766564000000000000000000000081525060200191505060405180910390fd5b50505050565b6060611a6882611ea5565b611ada576040517f08c379a00000000000000000000000000000000000000000000000000000000081526004018080602001828103825260148152602001807f546f6b656e20646f65736e27742065786973747300000000000000000000000081525060200191505060405180910390fd5b601260008381526020019081526020016000208054600181600116156101000203166002900480601f016020809104026020016040519081016040528092919081815260200182805460018160011615610100020316600290048015611b815780601f10611b5657610100808354040283529160200191611b81565b820191906000526020600020905b815481529060010190602001808311611b6457829003601f168201915b50505050509050919050565b606060118054600181600116156101000203166002900480601f016020809104026020016040519081016040528092919081815260200182805460018160011615610100020316600290048015611c255780601f10611bfa57610100808354040283529160200191611c25565b820191906000526020600020905b815481529060010190602001808311611c0857829003601f168201915b5050505050905090565b6000600560008473ffffffffffffffffffffffffffffffffffffffff1673ffffffffffffffffffffffffffffffffffffffff16815260200190815260200160002060008373ffffffffffffffffffffffffffffffffffffffff1673ffffffffffffffffffffffffffffffffffffffff16815260200190815260200160002060009054906101000a900460ff16905092915050565b60011515611ccf611732565b151514611d44576040517f08c379a00000000000000000000000000000000000000000000000000000000081526004018080602001828103825260188152602001807f4f6e6c79206f776e65722063616e20616363657373206974000000000000000081525060200191505060405180910390fd5b600073ffffffffffffffffffffffffffffffffffffffff168173ffffffffffffffffffffffffffffffffffffffff161415611de7576040517f08c379a00000000000000000000000000000000000000000000000000000000081526004018080602001828103825260178152602001807f43616e27742063616c20746869732066756e6374696f6e00000000000000000081525060200191505060405180910390fd5b8073ffffffffffffffffffffffffffffffffffffffff166000809054906101000a900473ffffffffffffffffffffffffffffffffffffffff1673ffffffffffffffffffffffffffffffffffffffff167fc5bf6dda410d3f9123b5de1a2f5d486bd65c29adfc2e21c0ac98fd6f826fd4a260405160405180910390a3806000806101000a81548173ffffffffffffffffffffffffffffffffffffffff021916908373ffffffffffffffffffffffffffffffffffffffff16021790555050565b6000806002600084815260200190815260200160002060009054906101000a900473ffffffffffffffffffffffffffffffffffffffff169050600073ffffffffffffffffffffffffffffffffffffffff168173ffffffffffffffffffffffffffffffffffffffff161415915050919050565b600080611f23836113a7565b90508073ffffffffffffffffffffffffffffffffffffffff168473ffffffffffffffffffffffffffffffffffffffff161480611f9257508373ffffffffffffffffffffffffffffffffffffffff16611f7a84610cd2565b73ffffffffffffffffffffffffffffffffffffffff16145b80611fa35750611fa28185611c2f565b5b91505092915050565b611fb78383836121c7565b611fc1838261245c565b611fcb82826125fa565b505050565b600081600001549050919050565b6000611fff8473ffffffffffffffffffffffffffffffffffffffff166126c1565b61200c57600190506121bf565b60008473ffffffffffffffffffffffffffffffffffffffff1663150b7a02338887876040518563ffffffff1660e01b8152600401808573ffffffffffffffffffffffffffffffffffffffff1673ffffffffffffffffffffffffffffffffffffffff1681526020018473ffffffffffffffffffffffffffffffffffffffff1673ffffffffffffffffffffffffffffffffffffffff16815260200183815260200180602001828103825283818151815260200191508051906020019080838360005b838110156120e75780820151818401526020810190506120cc565b50505050905090810190601f1680156121145780820380516001836020036101000a031916815260200191505b5095505050505050602060405180830381600087803b15801561213657600080fd5b505af115801561214a573d6000803e3d6000fd5b505050506040513d602081101561216057600080fd5b8101908080519060200190929190505050905063150b7a0260e01b7bffffffffffffffffffffffffffffffffffffffffffffffffffffffff1916817bffffffffffffffffffffffffffffffffffffffffffffffffffffffff1916149150505b949350505050565b8273ffffffffffffffffffffffffffffffffffffffff166121e7826113a7565b73ffffffffffffffffffffffffffffffffffffffff1614612270576040517f08c379a00000000000000000000000000000000000000000000000000000000081526004018080602001828103825260178152602001807f596f752063616e2774207472616e73666572207468697300000000000000000081525060200191505060405180910390fd5b600073ffffffffffffffffffffffffffffffffffffffff168273ffffffffffffffffffffffffffffffffffffffff161415612313576040517f08c379a000000000000000000000000000000000000000000000000000000000815260040180806020018281038252601e8152602001807f43616e2774207472616e7366657220746f20746869732061646472657373000081525060200191505060405180910390fd5b61231c8161270c565b612363600460008573ffffffffffffffffffffffffffffffffffffffff1673ffffffffffffffffffffffffffffffffffffffff1681526020019081526020016000206127ca565b6123aa600460008473ffffffffffffffffffffffffffffffffffffffff1673ffffffffffffffffffffffffffffffffffffffff1681526020019081526020016000206127ed565b816002600083815260200190815260200160002060006101000a81548173ffffffffffffffffffffffffffffffffffffffff021916908373ffffffffffffffffffffffffffffffffffffffff160217905550808273ffffffffffffffffffffffffffffffffffffffff168473ffffffffffffffffffffffffffffffffffffffff167fddf252ad1be2c89b69c2b068fc378daa952ba7f163c4a11628f55a4df523b3ef60405160405180910390a4505050565b60006124b46001600660008673ffffffffffffffffffffffffffffffffffffffff1673ffffffffffffffffffffffffffffffffffffffff1681526020019081526020016000208054905061280390919063ffffffff16565b90506000600760008481526020019081526020016000205490508181146125a1576000600660008673ffffffffffffffffffffffffffffffffffffffff1673ffffffffffffffffffffffffffffffffffffffff168152602001908152602001600020838154811061252157fe5b9060005260206000200154905080600660008773ffffffffffffffffffffffffffffffffffffffff1673ffffffffffffffffffffffffffffffffffffffff168152602001908152602001600020838154811061257957fe5b9060005260206000200181905550816007600083815260200190815260200160002081905550505b600660008573ffffffffffffffffffffffffffffffffffffffff1673ffffffffffffffffffffffffffffffffffffffff1681526020019081526020016000208054809190600190036125f3919061290d565b5050505050565b600660008373ffffffffffffffffffffffffffffffffffffffff1673ffffffffffffffffffffffffffffffffffffffff168152602001908152602001600020805490506007600083815260200190815260200160002081905550600660008373ffffffffffffffffffffffffffffffffffffffff1673ffffffffffffffffffffffffffffffffffffffff1681526020019081526020016000208190806001815401808255809150509060018203906000526020600020016000909192909190915055505050565b60008060007fc5d2460186f7233c927e7db2dcc703c0e500b653ca82273b7bfad8045d85a47060001b9050833f915080821415801561270357506000801b8214155b92505050919050565b600073ffffffffffffffffffffffffffffffffffffffff166003600083815260200190815260200160002060009054906101000a900473ffffffffffffffffffffffffffffffffffffffff1673ffffffffffffffffffffffffffffffffffffffff16146127c75760006003600083815260200190815260200160002060006101000a81548173ffffffffffffffffffffffffffffffffffffffff021916908373ffffffffffffffffffffffffffffffffffffffff1602179055505b50565b6127e26001826000015461280390919063ffffffff16565b816000018190555050565b6001816000016000828254019250508190555050565b600061284583836040518060400160405280601e81526020017f536166654d6174683a207375627472616374696f6e206f766572666c6f77000081525061284d565b905092915050565b60008383111582906128fa576040517f08c379a00000000000000000000000000000000000000000000000000000000081526004018080602001828103825283818151815260200191508051906020019080838360005b838110156128bf5780820151818401526020810190506128a4565b50505050905090810190601f1680156128ec5780820380516001836020036101000a031916815260200191505b509250505060405180910390fd5b5060008385039050809150509392505050565b815481835581811115612934578183600052602060002091820191016129339190612939565b5b505050565b61295b91905b8082111561295757600081600090555060010161293f565b5090565b9056fea265627a7a7231582074bd47630f656173b1c226712c74f6d8afbed1c0e1caabd86381bc95876026e164736f6c63430005100032",
  "source": "pragma solidity >=0.5.0;\r\n\r\nimport \"../../node_modules/openzeppelin-solidity/contracts/utils/Address.sol\";\r\nimport \"../../node_modules/openzeppelin-solidity/contracts/drafts/Counters.sol\";\r\nimport \"../../node_modules/openzeppelin-solidity/contracts/math/SafeMath.sol\";\r\nimport \"../../node_modules/openzeppelin-solidity/contracts/token/ERC721/IERC721Receiver.sol\";\r\nimport \"./Oraclize.sol\";\r\n\r\n\r\ncontract Ownable {\r\n    //  TODO's\r\n\r\n    //  1) create a private '_owner' variable of type address with a public getter function\r\n    address private _owner;\r\n\r\n    //  2) create an internal constructor that sets the _owner var to the creater of the contract.\r\n    constructor() internal {\r\n        _owner = msg.sender;\r\n        emit TransferOwnerShip(address(0), _owner);\r\n    }\r\n\r\n    //  3) create an 'onlyOwner' modifier that throws if called by any account other than the owner.\r\n    modifier onlyOwner() {\r\n        require(isOwner() == true, \"Only owner can access it\");\r\n        _;\r\n    }\r\n\r\n    //  4) fill out the transferOwnership function\r\n    function transferOwnership(address newOwner) public onlyOwner {\r\n        // TODO add functionality to transfer control of the contract to a newOwner.\r\n        // make sure the new owner is a real address\r\n        require(newOwner != address(0), \"Can't cal this function\");\r\n        emit TransferOwnerShip(_owner, newOwner);\r\n        _owner = newOwner;\r\n    }\r\n\r\n    //  5) create an event that emits anytime ownerShip is transfered (including in the constructor)\r\n    event TransferOwnerShip(address indexed oldOwner, address indexed newOwner);\r\n\r\n    function isOwner() public view returns (bool) {\r\n        return msg.sender == _owner;\r\n    }\r\n\r\n    function owner() public view returns (address) {\r\n        return _owner;\r\n    }\r\n}\r\n\r\n\r\n//  TODO's: Create a Pausable contract that inherits from the Ownable contract\r\ncontract Pausable is Ownable {\r\n    //  1) create a private '_paused' variable of type bool\r\n    //  2) create a public setter using the inherited onlyOwner modifier\r\n    //  4) create 'whenNotPaused' & 'paused' modifier that throws in the appropriate situation\r\n    //  3) create an internal constructor that sets the _paused variable to false\r\n    //  5) create a Paused & Unpaused event that emits the address that triggered the event\r\n\r\n    bool private _paused;\r\n\r\n    modifier whenNotPaused() {\r\n        require(!_paused, \"it is already paused\");\r\n        _;\r\n    }\r\n\r\n    modifier whenPaused() {\r\n        require(_paused, \"it is already un-paused\");\r\n        _;\r\n    }\r\n\r\n    event Paused(address account);\r\n    event Unpaused(address account);\r\n\r\n    constructor() internal {\r\n        _paused = false;\r\n    }\r\n\r\n    function pause() public onlyOwner whenNotPaused {\r\n        _paused = true;\r\n        emit Paused(msg.sender);\r\n    }\r\n\r\n    function unpause() public onlyOwner whenPaused {\r\n        _paused = false;\r\n        emit Unpaused(msg.sender);\r\n    }\r\n}\r\n\r\n\r\ncontract ERC165 {\r\n    bytes4 private constant _INTERFACE_ID_ERC165 = 0x01ffc9a7;\r\n    /*\r\n     * 0x01ffc9a7 ===\r\n     *     bytes4(keccak256('supportsInterface(bytes4)'))\r\n     */\r\n\r\n    /**\r\n     * @dev a mapping of interface id to whether or not it's supported\r\n     */\r\n    mapping(bytes4 => bool) private _supportedInterfaces;\r\n\r\n    /**\r\n     * @dev A contract implementing SupportsInterfaceWithLookup\r\n     * implement ERC165 itself\r\n     */\r\n    constructor() internal {\r\n        _registerInterface(_INTERFACE_ID_ERC165);\r\n    }\r\n\r\n    /**\r\n     * @dev implement supportsInterface(bytes4) using a lookup table\r\n     */\r\n    function supportsInterface(bytes4 interfaceId)\r\n        external\r\n        view\r\n        returns (bool)\r\n    {\r\n        return _supportedInterfaces[interfaceId];\r\n    }\r\n\r\n    /**\r\n     * @dev internal method for registering an interface\r\n     */\r\n    function _registerInterface(bytes4 interfaceId) internal {\r\n        require(interfaceId != 0xffffffff, \"Wrong interface id\");\r\n        _supportedInterfaces[interfaceId] = true;\r\n    }\r\n}\r\n\r\n\r\ncontract ERC721 is Pausable, ERC165 {\r\n    event Transfer(\r\n        address indexed from,\r\n        address indexed to,\r\n        uint256 indexed tokenId\r\n    );\r\n\r\n    event Approval(\r\n        address indexed owner,\r\n        address indexed approved,\r\n        uint256 indexed tokenId\r\n    );\r\n\r\n    event ApprovalForAll(\r\n        address indexed owner,\r\n        address indexed operator,\r\n        bool approved\r\n    );\r\n\r\n    using SafeMath for uint256;\r\n    using Address for address;\r\n    using Counters for Counters.Counter;\r\n\r\n    // Equals to `bytes4(keccak256(\"onERC721Received(address,address,uint256,bytes)\"))`\r\n    // which can be also obtained as `IERC721Receiver(0).onERC721Received.selector`\r\n    bytes4 private constant _ERC721_RECEIVED = 0x150b7a02;\r\n\r\n    // Mapping from token ID to owner\r\n    mapping(uint256 => address) private _tokenOwner;\r\n\r\n    // Mapping from token ID to approved address\r\n    mapping(uint256 => address) private _tokenApprovals;\r\n\r\n    // Mapping from owner to number of owned token\r\n    // IMPORTANT: this mapping uses Counters lib which is used to protect overflow when incrementing/decrementing a uint\r\n    // use the following functions when interacting with Counters: increment(), decrement(), and current() to get the value\r\n    // see: https://github.com/OpenZeppelin/openzeppelin-solidity/blob/master/contracts/drafts/Counters.sol\r\n    mapping(address => Counters.Counter) private _ownedTokensCount;\r\n\r\n    // Mapping from owner to operator approvals\r\n    mapping(address => mapping(address => bool)) private _operatorApprovals;\r\n\r\n    bytes4 private constant _INTERFACE_ID_ERC721 = 0x80ac58cd;\r\n\r\n    constructor() public {\r\n        // register the supported interfaces to conform to ERC721 via ERC165\r\n        _registerInterface(_INTERFACE_ID_ERC721);\r\n    }\r\n\r\n    function balanceOf(address owner) public view returns (uint256) {\r\n        // TODO return the token balance of given address\r\n        // TIP: remember the functions to use for Counters. you can refresh yourself with the link above\r\n        require(owner != address(0), \"You can't call this function\");\r\n        return _ownedTokensCount[owner].current();\r\n    }\r\n\r\n    function ownerOf(uint256 tokenId) public view returns (address) {\r\n        // TODO return the owner of the given tokenId\r\n        require(owner() != address(0), \"You can't call this function\");\r\n        address owner = _tokenOwner[tokenId];\r\n        return owner;\r\n    }\r\n\r\n    //    @dev Approves another address to transfer the given token ID\r\n    function approve(address to, uint256 tokenId) public {\r\n        // TODO require the given address to not be the owner of the tokenId\r\n        require(to != owner(), \"Condition failed\");\r\n\r\n        // TODO require the msg sender to be the owner of the contract or isApprovedForAll() to be true\r\n        require(\r\n            msg.sender == owner() || isApprovedForAll(owner(), msg.sender),\r\n            \"Condidtion not satisfied\"\r\n        );\r\n\r\n        // TODO add 'to' address to token approvals\r\n        _tokenApprovals[tokenId] = to;\r\n\r\n        // TODO emit Approval Event\r\n        emit Approval(owner(), to, tokenId);\r\n    }\r\n\r\n    function getApproved(uint256 tokenId) public view returns (address) {\r\n        // TODO return token approval if it exists\r\n        require(_exists(tokenId), \"Token doesn't exists\");\r\n        return _tokenApprovals[tokenId];\r\n    }\r\n\r\n    /**\r\n     * @dev Sets or unsets the approval of a given operator\r\n     * An operator is allowed to transfer all tokens of the sender on their behalf\r\n     * @param to operator address to set the approval\r\n     * @param approved representing the status of the approval to be set\r\n     */\r\n    function setApprovalForAll(address to, bool approved) public {\r\n        require(to != msg.sender, \"Condition unsatisfied\");\r\n        _operatorApprovals[msg.sender][to] = approved;\r\n        emit ApprovalForAll(msg.sender, to, approved);\r\n    }\r\n\r\n    /**\r\n     * @dev Tells whether an operator is approved by a given owner\r\n     * @param owner owner address which you want to query the approval of\r\n     * @param operator operator address which you want to query the approval of\r\n     * @return bool whether the given operator is approved by the given owner\r\n     */\r\n    function isApprovedForAll(address owner, address operator)\r\n        public\r\n        view\r\n        returns (bool)\r\n    {\r\n        return _operatorApprovals[owner][operator];\r\n    }\r\n\r\n    function transferFrom(address from, address to, uint256 tokenId) public {\r\n        require(\r\n            _isApprovedOrOwner(msg.sender, tokenId),\r\n            \"Owner is not approved\"\r\n        );\r\n\r\n        _transferFrom(from, to, tokenId);\r\n    }\r\n\r\n    function safeTransferFrom(address from, address to, uint256 tokenId)\r\n        public\r\n    {\r\n        safeTransferFrom(from, to, tokenId, \"\");\r\n    }\r\n\r\n    function safeTransferFrom(\r\n        address from,\r\n        address to,\r\n        uint256 tokenId,\r\n        bytes memory _data\r\n    ) public {\r\n        transferFrom(from, to, tokenId);\r\n        require(\r\n            _checkOnERC721Received(from, to, tokenId, _data),\r\n            \"Transfer not recieved\"\r\n        );\r\n    }\r\n\r\n    /**\r\n     * @dev Returns whether the specified token exists\r\n     * @param tokenId uint256 ID of the token to query the existence of\r\n     * @return bool whether the token exists\r\n     */\r\n    function _exists(uint256 tokenId) internal view returns (bool) {\r\n        address owner = _tokenOwner[tokenId];\r\n        return owner != address(0);\r\n    }\r\n\r\n    /**\r\n     * @dev Returns whether the given spender can transfer a given token ID\r\n     * @param spender address of the spender to query\r\n     * @param tokenId uint256 ID of the token to be transferred\r\n     * @return bool whether the msg.sender is approved for the given token ID,\r\n     * is an operator of the owner, or is the owner of the token\r\n     */\r\n    function _isApprovedOrOwner(address spender, uint256 tokenId)\r\n        internal\r\n        view\r\n        returns (bool)\r\n    {\r\n        address owner = ownerOf(tokenId);\r\n        return (spender == owner ||\r\n            getApproved(tokenId) == spender ||\r\n            isApprovedForAll(owner, spender));\r\n    }\r\n\r\n    // @dev Internal function to mint a new token\r\n    // TIP: remember the functions to use for Counters. you can refresh yourself with the link above\r\n    function _mint(address to, uint256 tokenId) internal {\r\n        // TODO revert if given tokenId already exists or given address is invalid\r\n        require(to != address(0), \"NA\");\r\n        require(!_exists(tokenId), \"Token already exists\");\r\n\r\n        // TODO mint tokenId to given address & increase token count of owner\r\n        _tokenOwner[tokenId] = to;\r\n        _ownedTokensCount[to].increment();\r\n\r\n        // TODO emit Transfer event\r\n        emit Transfer(address(0), to, tokenId);\r\n    }\r\n\r\n    // @dev Internal function to transfer ownership of a given token ID to another address.\r\n    // TIP: remember the functions to use for Counters. you can refresh yourself with the link above\r\n    function _transferFrom(address from, address to, uint256 tokenId) internal {\r\n        // TODO: require from address is the owner of the given token\r\n        require(ownerOf(tokenId) == from, \"You can't transfer this\");\r\n\r\n        // TODO: require token is being transfered to valid address\r\n        require(to != address(0), \"Can't transfer to this address\");\r\n\r\n        // TODO: clear approval\r\n        _clearApproval(tokenId);\r\n\r\n        // TODO: update token counts & transfer ownership of the token ID\r\n        _ownedTokensCount[from].decrement();\r\n        _ownedTokensCount[to].increment();\r\n        _tokenOwner[tokenId] = to;\r\n\r\n        // TODO: emit correct event\r\n        emit Transfer(from, to, tokenId);\r\n    }\r\n\r\n    /**\r\n     * @dev Internal function to invoke `onERC721Received` on a target address\r\n     * The call is not executed if the target address is not a contract\r\n     * @param from address representing the previous owner of the given token ID\r\n     * @param to target address that will receive the tokens\r\n     * @param tokenId uint256 ID of the token to be transferred\r\n     * @param _data bytes optional data to send along with the call\r\n     * @return bool whether the call correctly returned the expected magic value\r\n     */\r\n    function _checkOnERC721Received(\r\n        address from,\r\n        address to,\r\n        uint256 tokenId,\r\n        bytes memory _data\r\n    ) internal returns (bool) {\r\n        if (!to.isContract()) {\r\n            return true;\r\n        }\r\n\r\n        bytes4 retval = IERC721Receiver(to).onERC721Received(\r\n            msg.sender,\r\n            from,\r\n            tokenId,\r\n            _data\r\n        );\r\n        return (retval == _ERC721_RECEIVED);\r\n    }\r\n\r\n    // @dev Private function to clear current approval of a given token ID\r\n    function _clearApproval(uint256 tokenId) private {\r\n        if (_tokenApprovals[tokenId] != address(0)) {\r\n            _tokenApprovals[tokenId] = address(0);\r\n        }\r\n    }\r\n}\r\n\r\n\r\ncontract ERC721Enumerable is ERC165, ERC721 {\r\n    // Mapping from owner to list of owned token IDs\r\n    mapping(address => uint256[]) private _ownedTokens;\r\n\r\n    // Mapping from token ID to index of the owner tokens list\r\n    mapping(uint256 => uint256) private _ownedTokensIndex;\r\n\r\n    // Array with all token ids, used for enumeration\r\n    uint256[] private _allTokens;\r\n\r\n    // Mapping from token id to position in the allTokens array\r\n    mapping(uint256 => uint256) private _allTokensIndex;\r\n\r\n    bytes4 private constant _INTERFACE_ID_ERC721_ENUMERABLE = 0x780e9d63;\r\n\r\n    /*\r\n     * 0x780e9d63 ===\r\n     *     bytes4(keccak256('totalSupply()')) ^\r\n     *     bytes4(keccak256('tokenOfOwnerByIndex(address,uint256)')) ^\r\n     *     bytes4(keccak256('tokenByIndex(uint256)'))\r\n     */\r\n\r\n    /**\r\n     * @dev Constructor function\r\n     */\r\n    constructor() public {\r\n        // register the supported interface to conform to ERC721Enumerable via ERC165\r\n        _registerInterface(_INTERFACE_ID_ERC721_ENUMERABLE);\r\n    }\r\n\r\n    /**\r\n     * @dev Gets the token ID at a given index of the tokens list of the requested owner\r\n     * @param owner address owning the tokens list to be accessed\r\n     * @param index uint256 representing the index to be accessed of the requested tokens list\r\n     * @return uint256 token ID at the given index of the tokens list owned by the requested address\r\n     */\r\n    function tokenOfOwnerByIndex(address owner, uint256 index)\r\n        public\r\n        view\r\n        returns (uint256)\r\n    {\r\n        require(index < balanceOf(owner), \"NA\");\r\n        return _ownedTokens[owner][index];\r\n    }\r\n\r\n    /**\r\n     * @dev Gets the total amount of tokens stored by the contract\r\n     * @return uint256 representing the total amount of tokens\r\n     */\r\n    function totalSupply() public view returns (uint256) {\r\n        return _allTokens.length;\r\n    }\r\n\r\n    /**\r\n     * @dev Gets the token ID at a given index of all the tokens in this contract\r\n     * Reverts if the index is greater or equal to the total number of tokens\r\n     * @param index uint256 representing the index to be accessed of the tokens list\r\n     * @return uint256 token ID at the given index of the tokens list\r\n     */\r\n    function tokenByIndex(uint256 index) public view returns (uint256) {\r\n        require(index < totalSupply(), \"NA\");\r\n        return _allTokens[index];\r\n    }\r\n\r\n    /**\r\n     * @dev Internal function to transfer ownership of a given token ID to another address.\r\n     * As opposed to transferFrom, this imposes no restrictions on msg.sender.\r\n     * @param from current owner of the token\r\n     * @param to address to receive the ownership of the given token ID\r\n     * @param tokenId uint256 ID of the token to be transferred\r\n     */\r\n    function _transferFrom(address from, address to, uint256 tokenId) internal {\r\n        super._transferFrom(from, to, tokenId);\r\n\r\n        _removeTokenFromOwnerEnumeration(from, tokenId);\r\n\r\n        _addTokenToOwnerEnumeration(to, tokenId);\r\n    }\r\n\r\n    /**\r\n     * @dev Internal function to mint a new token\r\n     * Reverts if the given token ID already exists\r\n     * @param to address the beneficiary that will own the minted token\r\n     * @param tokenId uint256 ID of the token to be minted\r\n     */\r\n    function _mint(address to, uint256 tokenId) internal {\r\n        super._mint(to, tokenId);\r\n\r\n        _addTokenToOwnerEnumeration(to, tokenId);\r\n\r\n        _addTokenToAllTokensEnumeration(tokenId);\r\n    }\r\n\r\n    /**\r\n     * @dev Gets the list of token IDs of the requested owner\r\n     * @param owner address owning the tokens\r\n     * @return uint256[] List of token IDs owned by the requested address\r\n     */\r\n    function _tokensOfOwner(address owner)\r\n        internal\r\n        view\r\n        returns (uint256[] storage)\r\n    {\r\n        return _ownedTokens[owner];\r\n    }\r\n\r\n    /**\r\n     * @dev Private function to add a token to this extension's ownership-tracking data structures.\r\n     * @param to address representing the new owner of the given token ID\r\n     * @param tokenId uint256 ID of the token to be added to the tokens list of the given address\r\n     */\r\n    function _addTokenToOwnerEnumeration(address to, uint256 tokenId) private {\r\n        _ownedTokensIndex[tokenId] = _ownedTokens[to].length;\r\n        _ownedTokens[to].push(tokenId);\r\n    }\r\n\r\n    /**\r\n     * @dev Private function to add a token to this extension's token tracking data structures.\r\n     * @param tokenId uint256 ID of the token to be added to the tokens list\r\n     */\r\n    function _addTokenToAllTokensEnumeration(uint256 tokenId) private {\r\n        _allTokensIndex[tokenId] = _allTokens.length;\r\n        _allTokens.push(tokenId);\r\n    }\r\n\r\n    /**\r\n     * @dev Private function to remove a token from this extension's ownership-tracking data structures. Note that\r\n     * while the token is not assigned a new owner, the _ownedTokensIndex mapping is _not_ updated: this allows for\r\n     * gas optimizations e.g. when performing a transfer operation (avoiding double writes).\r\n     * This has O(1) time complexity, but alters the order of the _ownedTokens array.\r\n     * @param from address representing the previous owner of the given token ID\r\n     * @param tokenId uint256 ID of the token to be removed from the tokens list of the given address\r\n     */\r\n    function _removeTokenFromOwnerEnumeration(address from, uint256 tokenId)\r\n        private\r\n    {\r\n        // To prevent a gap in from's tokens array, we store the last token in the index of the token to delete, and\r\n        // then delete the last slot (swap and pop).\r\n\r\n        uint256 lastTokenIndex = _ownedTokens[from].length.sub(1);\r\n        uint256 tokenIndex = _ownedTokensIndex[tokenId];\r\n\r\n        // When the token to delete is the last token, the swap operation is unnecessary\r\n        if (tokenIndex != lastTokenIndex) {\r\n            uint256 lastTokenId = _ownedTokens[from][lastTokenIndex];\r\n\r\n            _ownedTokens[from][tokenIndex] = lastTokenId; // Move the last token to the slot of the to-delete token\r\n            _ownedTokensIndex[lastTokenId] = tokenIndex; // Update the moved token's index\r\n        }\r\n\r\n        // This also deletes the contents at the last position of the array\r\n        _ownedTokens[from].length--;\r\n\r\n        // Note that _ownedTokensIndex[tokenId] hasn't been cleared: it still points to the old slot (now occupied by\r\n        // lastTokenId, or just over the end of the array if the token was the last one).\r\n    }\r\n\r\n    /**\r\n     * @dev Private function to remove a token from this extension's token tracking data structures.\r\n     * This has O(1) time complexity, but alters the order of the _allTokens array.\r\n     * @param tokenId uint256 ID of the token to be removed from the tokens list\r\n     */\r\n    function _removeTokenFromAllTokensEnumeration(uint256 tokenId) private {\r\n        // To prevent a gap in the tokens array, we store the last token in the index of the token to delete, and\r\n        // then delete the last slot (swap and pop).\r\n\r\n        uint256 lastTokenIndex = _allTokens.length.sub(1);\r\n        uint256 tokenIndex = _allTokensIndex[tokenId];\r\n\r\n        // When the token to delete is the last token, the swap operation is unnecessary. However, since this occurs so\r\n        // rarely (when the last minted token is burnt) that we still do the swap here to avoid the gas cost of adding\r\n        // an 'if' statement (like in _removeTokenFromOwnerEnumeration)\r\n        uint256 lastTokenId = _allTokens[lastTokenIndex];\r\n\r\n        _allTokens[tokenIndex] = lastTokenId; // Move the last token to the slot of the to-delete token\r\n        _allTokensIndex[lastTokenId] = tokenIndex; // Update the moved token's index\r\n\r\n        // This also deletes the contents at the last position of the array\r\n        _allTokens.length--;\r\n        _allTokensIndex[tokenId] = 0;\r\n    }\r\n}\r\n\r\n\r\ncontract ERC721Metadata is ERC721Enumerable, usingOraclize {\r\n    // TODO: Create private vars for token _name, _symbol, and _baseTokenURI (string)\r\n    string private _name;\r\n    string private _symbol;\r\n    string private _baseTokenURI;\r\n\r\n    // TODO: create private mapping of tokenId's to token uri's called '_tokenURIs'\r\n    mapping(uint256 => string) private _tokenURIs;\r\n\r\n    bytes4 private constant _INTERFACE_ID_ERC721_METADATA = 0x5b5e139f;\r\n\r\n    /*\r\n     * 0x5b5e139f ===\r\n     *     bytes4(keccak256('name()')) ^\r\n     *     bytes4(keccak256('symbol()')) ^\r\n     *     bytes4(keccak256('tokenURI(uint256)'))\r\n     */\r\n\r\n    constructor(\r\n        string memory name,\r\n        string memory symbol,\r\n        string memory baseTokenURI\r\n    ) public {\r\n        // TODO: set instance var values\r\n        _name = name;\r\n        _symbol = symbol;\r\n        _baseTokenURI = baseTokenURI;\r\n\r\n        _registerInterface(_INTERFACE_ID_ERC721_METADATA);\r\n    }\r\n\r\n    // TODO: create external getter functions for name, symbol, and baseTokenURI\r\n    function name() external view returns (string memory) {\r\n        return _name;\r\n    }\r\n\r\n    function symbol() external view returns (string memory) {\r\n        return _symbol;\r\n    }\r\n\r\n    function baseTokenURI() external view returns (string memory) {\r\n        return _baseTokenURI;\r\n    }\r\n\r\n    function tokenURI(uint256 tokenId) external view returns (string memory) {\r\n        require(_exists(tokenId), \"Token doesn't exists\");\r\n        return _tokenURIs[tokenId];\r\n    }\r\n\r\n    // TODO: Create an internal function to set the tokenURI of a specified tokenId\r\n    // It should be the _baseTokenURI + the tokenId in string form\r\n    // TIP #1: use strConcat() from the imported oraclizeAPI lib to set the complete token URI\r\n    // TIP #2: you can also use uint2str() to convert a uint to a string\r\n    // see https://github.com/oraclize/ethereum-api/blob/master/oraclizeAPI_0.5.sol for strConcat()\r\n    // require the token exists before setting\r\n    function _setTokenURI(uint256 tokenId) internal {\r\n        require(_exists(tokenId), \"Token doesn't exists\");\r\n        _tokenURIs[tokenId] = strConcat(_baseTokenURI, uint2str(tokenId));\r\n    }\r\n}\r\n\r\n\r\n//  TODO's: Create CustomERC721Token contract that inherits from the ERC721Metadata contract. You can name this contract as you please\r\n//  1) Pass in appropriate values for the inherited ERC721Metadata contract\r\n//      - make the base token uri: https://s3-us-west-2.amazonaws.com/udacity-blockchain/capstone/\r\n//  2) create a public mint() that does the following:\r\n//      -can only be executed by the contract owner\r\n//      -takes in a 'to' address, tokenId, and tokenURI as parameters\r\n//      -returns a true boolean upon completion of the function\r\n//      -calls the superclass mint and setTokenURI functions\r\ncontract CustomERC721Token is ERC721Metadata {\r\n    constructor(string memory name, string memory symbol)\r\n        public\r\n        ERC721Metadata(\r\n            name,\r\n            symbol,\r\n            \"https://s3-us-west-2.amazonaws.com/udacity-blockchain/capstone/\"\r\n        )\r\n    {}\r\n\r\n    function mint(address to, uint256 tokenId) public onlyOwner returns (bool) {\r\n        super._mint(to, tokenId);\r\n        super._setTokenURI(tokenId);\r\n        return true;\r\n    }\r\n}\r\n",
  "sourcePath": "A:\\Blockchain\\New_folder\\capstone\\eth-contracts\\contracts\\ERC721Mintable.sol",
  "compiler": {
    "name": "solc",
    "version": "0.5.16+commit.9c3226ce.Emscripten.clang"
  },
  "schemaVersion": "3.0.23",
  "updatedAt": "2020-05-15T04:41:27.374Z",
  "devdoc": {
    "methods": {
      "isApprovedForAll(address,address)": {
        "details": "Tells whether an operator is approved by a given owner",
        "params": {
          "operator": "operator address which you want to query the approval of",
          "owner": "owner address which you want to query the approval of"
        },
        "return": "bool whether the given operator is approved by the given owner"
      },
      "setApprovalForAll(address,bool)": {
        "details": "Sets or unsets the approval of a given operator An operator is allowed to transfer all tokens of the sender on their behalf",
        "params": {
          "approved": "representing the status of the approval to be set",
          "to": "operator address to set the approval"
        }
      },
      "supportsInterface(bytes4)": {
        "details": "implement supportsInterface(bytes4) using a lookup table"
      },
      "tokenByIndex(uint256)": {
        "details": "Gets the token ID at a given index of all the tokens in this contract Reverts if the index is greater or equal to the total number of tokens",
        "params": {
          "index": "uint256 representing the index to be accessed of the tokens list"
        },
        "return": "uint256 token ID at the given index of the tokens list"
      },
      "tokenOfOwnerByIndex(address,uint256)": {
        "details": "Gets the token ID at a given index of the tokens list of the requested owner",
        "params": {
          "index": "uint256 representing the index to be accessed of the requested tokens list",
          "owner": "address owning the tokens list to be accessed"
        },
        "return": "uint256 token ID at the given index of the tokens list owned by the requested address"
      },
      "totalSupply()": {
        "details": "Gets the total amount of tokens stored by the contract",
        "return": "uint256 representing the total amount of tokens"
      }
    }
  },
  "userdoc": {
    "methods": {}
  }
}